{
    "contractName": "AuthorityFactory",
    "abi": [
        {
            "inputs": [
                {
                    "internalType": "address",
                    "name": "cloudOwner",
                    "type": "address"
                }
            ],
            "stateMutability": "nonpayable",
            "type": "constructor"
        },
        {
            "anonymous": false,
            "inputs": [
                {
                    "indexed": true,
                    "internalType": "address",
                    "name": "owner",
                    "type": "address"
                },
                {
                    "indexed": true,
                    "internalType": "address",
                    "name": "approved",
                    "type": "address"
                },
                {
                    "indexed": true,
                    "internalType": "uint256",
                    "name": "tokenId",
                    "type": "uint256"
                }
            ],
            "name": "Approval",
            "type": "event"
        },
        {
            "anonymous": false,
            "inputs": [
                {
                    "indexed": true,
                    "internalType": "address",
                    "name": "owner",
                    "type": "address"
                },
                {
                    "indexed": true,
                    "internalType": "address",
                    "name": "operator",
                    "type": "address"
                },
                {
                    "indexed": false,
                    "internalType": "bool",
                    "name": "approved",
                    "type": "bool"
                }
            ],
            "name": "ApprovalForAll",
            "type": "event"
        },
        {
            "anonymous": false,
            "inputs": [
                {
                    "indexed": true,
                    "internalType": "bytes32",
                    "name": "role",
                    "type": "bytes32"
                },
                {
                    "indexed": true,
                    "internalType": "bytes32",
                    "name": "previousAdminRole",
                    "type": "bytes32"
                },
                {
                    "indexed": true,
                    "internalType": "bytes32",
                    "name": "newAdminRole",
                    "type": "bytes32"
                }
            ],
            "name": "RoleAdminChanged",
            "type": "event"
        },
        {
            "anonymous": false,
            "inputs": [
                {
                    "indexed": true,
                    "internalType": "bytes32",
                    "name": "role",
                    "type": "bytes32"
                },
                {
                    "indexed": true,
                    "internalType": "address",
                    "name": "account",
                    "type": "address"
                },
                {
                    "indexed": true,
                    "internalType": "address",
                    "name": "sender",
                    "type": "address"
                }
            ],
            "name": "RoleGranted",
            "type": "event"
        },
        {
            "anonymous": false,
            "inputs": [
                {
                    "indexed": true,
                    "internalType": "bytes32",
                    "name": "role",
                    "type": "bytes32"
                },
                {
                    "indexed": true,
                    "internalType": "address",
                    "name": "account",
                    "type": "address"
                },
                {
                    "indexed": true,
                    "internalType": "address",
                    "name": "sender",
                    "type": "address"
                }
            ],
            "name": "RoleRevoked",
            "type": "event"
        },
        {
            "anonymous": false,
            "inputs": [
                {
                    "indexed": true,
                    "internalType": "address",
                    "name": "from",
                    "type": "address"
                },
                {
                    "indexed": true,
                    "internalType": "address",
                    "name": "to",
                    "type": "address"
                },
                {
                    "indexed": true,
                    "internalType": "uint256",
                    "name": "tokenId",
                    "type": "uint256"
                }
            ],
            "name": "Transfer",
            "type": "event"
        },
        {
            "inputs": [],
            "name": "DEFAULT_ADMIN_ROLE",
            "outputs": [
                {
                    "internalType": "bytes32",
                    "name": "",
                    "type": "bytes32"
                }
            ],
            "stateMutability": "view",
            "type": "function"
        },
        {
            "inputs": [
                {
                    "internalType": "address",
                    "name": "_account",
                    "type": "address"
                }
            ],
            "name": "addAdmin",
            "outputs": [],
            "stateMutability": "nonpayable",
            "type": "function"
        },
        {
            "inputs": [
                {
                    "internalType": "address",
                    "name": "to",
                    "type": "address"
                },
                {
                    "internalType": "uint256",
                    "name": "tokenId",
                    "type": "uint256"
                }
            ],
            "name": "approve",
            "outputs": [],
            "stateMutability": "nonpayable",
            "type": "function"
        },
        {
            "inputs": [
                {
                    "internalType": "address",
                    "name": "owner",
                    "type": "address"
                }
            ],
            "name": "balanceOf",
            "outputs": [
                {
                    "internalType": "uint256",
                    "name": "",
                    "type": "uint256"
                }
            ],
            "stateMutability": "view",
            "type": "function"
        },
        {
            "inputs": [
                {
                    "internalType": "uint256",
                    "name": "tokenId",
                    "type": "uint256"
                }
            ],
            "name": "getApproved",
            "outputs": [
                {
                    "internalType": "address",
                    "name": "",
                    "type": "address"
                }
            ],
            "stateMutability": "view",
            "type": "function"
        },
        {
            "inputs": [
                {
                    "internalType": "bytes32",
                    "name": "role",
                    "type": "bytes32"
                }
            ],
            "name": "getRoleAdmin",
            "outputs": [
                {
                    "internalType": "bytes32",
                    "name": "",
                    "type": "bytes32"
                }
            ],
            "stateMutability": "view",
            "type": "function"
        },
        {
            "inputs": [
                {
                    "internalType": "bytes32",
                    "name": "role",
                    "type": "bytes32"
                },
                {
                    "internalType": "address",
                    "name": "account",
                    "type": "address"
                }
            ],
            "name": "grantRole",
            "outputs": [],
            "stateMutability": "nonpayable",
            "type": "function"
        },
        {
            "inputs": [
                {
                    "internalType": "bytes32",
                    "name": "role",
                    "type": "bytes32"
                },
                {
                    "internalType": "address",
                    "name": "account",
                    "type": "address"
                }
            ],
            "name": "hasRole",
            "outputs": [
                {
                    "internalType": "bool",
                    "name": "",
                    "type": "bool"
                }
            ],
            "stateMutability": "view",
            "type": "function"
        },
        {
            "inputs": [
                {
                    "internalType": "address",
                    "name": "cloudOwner",
                    "type": "address"
                }
            ],
            "name": "initialize",
            "outputs": [],
            "stateMutability": "nonpayable",
            "type": "function"
        },
        {
            "inputs": [
                {
                    "internalType": "address",
                    "name": "_account",
                    "type": "address"
                }
            ],
            "name": "isAdmin",
            "outputs": [
                {
                    "internalType": "bool",
                    "name": "",
                    "type": "bool"
                }
            ],
            "stateMutability": "view",
            "type": "function"
        },
        {
            "inputs": [
                {
                    "internalType": "address",
                    "name": "owner",
                    "type": "address"
                },
                {
                    "internalType": "address",
                    "name": "operator",
                    "type": "address"
                }
            ],
            "name": "isApprovedForAll",
            "outputs": [
                {
                    "internalType": "bool",
                    "name": "",
                    "type": "bool"
                }
            ],
            "stateMutability": "view",
            "type": "function"
        },
        {
            "inputs": [
                {
                    "internalType": "address",
                    "name": "to",
                    "type": "address"
                },
                {
                    "internalType": "uint256",
                    "name": "tokenId",
                    "type": "uint256"
                }
            ],
            "name": "mint",
            "outputs": [],
            "stateMutability": "nonpayable",
            "type": "function"
        },
        {
            "inputs": [
                {
                    "internalType": "uint256",
                    "name": "tokenId",
                    "type": "uint256"
                }
            ],
            "name": "ownerOf",
            "outputs": [
                {
                    "internalType": "address",
                    "name": "",
                    "type": "address"
                }
            ],
            "stateMutability": "view",
            "type": "function"
        },
        {
            "inputs": [
                {
                    "internalType": "address",
                    "name": "_account",
                    "type": "address"
                }
            ],
            "name": "removeAdmin",
            "outputs": [],
            "stateMutability": "nonpayable",
            "type": "function"
        },
        {
            "inputs": [
                {
                    "internalType": "bytes32",
                    "name": "role",
                    "type": "bytes32"
                },
                {
                    "internalType": "address",
                    "name": "account",
                    "type": "address"
                }
            ],
            "name": "renounceRole",
            "outputs": [],
            "stateMutability": "nonpayable",
            "type": "function"
        },
        {
            "inputs": [
                {
                    "internalType": "bytes32",
                    "name": "role",
                    "type": "bytes32"
                },
                {
                    "internalType": "address",
                    "name": "account",
                    "type": "address"
                }
            ],
            "name": "revokeRole",
            "outputs": [],
            "stateMutability": "nonpayable",
            "type": "function"
        },
        {
            "inputs": [
                {
                    "internalType": "address",
                    "name": "from",
                    "type": "address"
                },
                {
                    "internalType": "address",
                    "name": "to",
                    "type": "address"
                },
                {
                    "internalType": "uint256",
                    "name": "tokenId",
                    "type": "uint256"
                }
            ],
            "name": "safeTransferFrom",
            "outputs": [],
            "stateMutability": "nonpayable",
            "type": "function"
        },
        {
            "inputs": [
                {
                    "internalType": "address",
                    "name": "from",
                    "type": "address"
                },
                {
                    "internalType": "address",
                    "name": "to",
                    "type": "address"
                },
                {
                    "internalType": "uint256",
                    "name": "tokenId",
                    "type": "uint256"
                },
                {
                    "internalType": "bytes",
                    "name": "_data",
                    "type": "bytes"
                }
            ],
            "name": "safeTransferFrom",
            "outputs": [],
            "stateMutability": "nonpayable",
            "type": "function"
        },
        {
            "inputs": [
                {
                    "internalType": "address",
                    "name": "operator",
                    "type": "address"
                },
                {
                    "internalType": "bool",
                    "name": "approved",
                    "type": "bool"
                }
            ],
            "name": "setApprovalForAll",
            "outputs": [],
            "stateMutability": "nonpayable",
            "type": "function"
        },
        {
            "inputs": [
                {
                    "internalType": "string",
                    "name": "nameVal",
                    "type": "string"
                }
            ],
            "name": "setName",
            "outputs": [],
            "stateMutability": "nonpayable",
            "type": "function"
        },
        {
            "inputs": [
                {
                    "internalType": "string",
                    "name": "symbolVal",
                    "type": "string"
                }
            ],
            "name": "setSymbol",
            "outputs": [],
            "stateMutability": "nonpayable",
            "type": "function"
        },
        {
            "inputs": [
                {
                    "internalType": "bytes4",
                    "name": "interfaceId",
                    "type": "bytes4"
                }
            ],
            "name": "supportsInterface",
            "outputs": [
                {
                    "internalType": "bool",
                    "name": "",
                    "type": "bool"
                }
            ],
            "stateMutability": "view",
            "type": "function"
        },
        {
            "inputs": [
                {
                    "internalType": "uint256",
                    "name": "tokenId",
                    "type": "uint256"
                }
            ],
            "name": "tokenURI",
            "outputs": [
                {
                    "internalType": "string",
                    "name": "",
                    "type": "string"
                }
            ],
            "stateMutability": "view",
            "type": "function"
        },
        {
            "inputs": [
                {
                    "internalType": "address",
                    "name": "from",
                    "type": "address"
                },
                {
                    "internalType": "address",
                    "name": "to",
                    "type": "address"
                },
                {
                    "internalType": "uint256",
                    "name": "tokenId",
                    "type": "uint256"
                }
            ],
            "name": "transferFrom",
            "outputs": [],
            "stateMutability": "nonpayable",
            "type": "function"
        }
    ],
    "bytecode": "60806040523480156200001157600080fd5b5060405162001f8138038062001f81833981016040819052620000349162000263565b60025461010090046001600160a01b031662000052600082620001b3565b6200007e7f0b61d0f3c02dc80c233efe89f6c7b81119e3c3ce125cdc1a4f67bf5e3587623682620001b3565b620000aa7f65d7a28e3265b37a6474929f336521b332c1681b933f6cb9f3376673440d862a82620001b3565b620000d67f02358c16c6ece4d564dd98c8400ef2ce02ec4ed5a3d53421ef64678a57ac510182620001b3565b620001027fb3bb6029312d1001076133d40b75b7eca92ba54e4963b3ce24e1486a3d5a038b82620001b3565b6200012e7f62150a51582c26f4255242a3c4ca35fb04250e7315069523d650676aed01a56a82620001b3565b6200015a7f813b9efdf6afe6b57682eb1fb850711edc34da21ae7f7376cb7a391b1be3239f82620001b3565b620001867f32f1f1918816c13175b4fdb4fd866a30959a9a543260d8c3bc4c46306e0fe74b82620001b3565b50600280546001600160a01b0390921661010002610100600160a81b031990921691909117905562000293565b620001bf8282620001c3565b5050565b6000828152602081815260408083206001600160a01b038516845290915290205460ff16620001bf576000828152602081815260408083206001600160a01b03851684529091529020805460ff191660011790556200021f3390565b6001600160a01b0316816001600160a01b0316837f2f8788117e7eff1d82e926ec794901d17c78024a50270940304540a733656f0d60405160405180910390a45050565b60006020828403121562000275578081fd5b81516001600160a01b03811681146200028c578182fd5b9392505050565b611cde80620002a36000396000f3fe608060405234801561001057600080fd5b50600436106101585760003560e01c806370480275116100c3578063b88d4fde1161007c578063b88d4fde146102f5578063c47f002714610308578063c4d66de81461031b578063c87b56dd1461032e578063d547741f1461034e578063e985e9c51461036157600080fd5b8063704802751461028e57806370a08231146102a157806391d14854146102b4578063a217fddf146102c7578063a22cb465146102cf578063b84c8246146102e257600080fd5b806324d7806c1161011557806324d7806c1461021c5780632f2ff15d1461022f57806336568abe1461024257806340c10f191461025557806342842e0e146102685780636352211e1461027b57600080fd5b806301ffc9a71461015d578063081812fc14610185578063095ea7b3146101b05780631785f53c146101c557806323b872dd146101d8578063248a9ca3146101eb575b600080fd5b61017061016b3660046118e9565b61039d565b60405190151581526020015b60405180910390f35b6101986101933660046118af565b6103e3565b6040516001600160a01b03909116815260200161017c565b6101c36101be366004611886565b610487565b005b6101c36101d336600461174c565b6105b2565b6101c36101e6366004611798565b6105c0565b61020e6101f93660046118af565b60009081526020819052604090206001015490565b60405190815260200161017c565b61017061022a36600461174c565b6105f1565b6101c361023d3660046118c7565b6105fd565b6101c36102503660046118c7565b610623565b6101c3610263366004611886565b6106a1565b6101c3610276366004611798565b6106ab565b6101986102893660046118af565b6106c6565b6101c361029c36600461174c565b610747565b61020e6102af36600461174c565b610752565b6101706102c23660046118c7565b6107e3565b61020e600081565b6101c36102dd36600461184c565b61080c565b6101c36102f0366004611921565b6108dd565b6101c36103033660046117d3565b61093e565b6101c3610316366004611921565b610976565b6101c361032936600461174c565b6109d7565b61034161033c3660046118af565b610a72565b60405161017c9190611a74565b6101c361035c3660046118c7565b610b68565b61017061036f366004611766565b6001600160a01b03918216600090815260076020908152604080832093909416825291909152205460ff1690565b60006001600160e01b031982166380ac58cd60e01b14806103ce57506001600160e01b03198216635b5e139f60e01b145b806103dd57506103dd82610b8e565b92915050565b6000818152600460205260408120546001600160a01b031661046b5760405162461bcd60e51b815260206004820152603660248201527f417574686f72697479466163746f72793a20617070726f766564207175657279604482015275103337b9103737b732bc34b9ba32b73a103a37b5b2b760511b60648201526084015b60405180910390fd5b506000908152600660205260409020546001600160a01b031690565b6000610492826106c6565b9050806001600160a01b0316836001600160a01b0316141561050a5760405162461bcd60e51b815260206004820152602b60248201527f417574686f72697479466163746f72793a20617070726f76616c20746f20637560448201526a393932b73a1037bbb732b960a91b6064820152608401610462565b336001600160a01b03821614806105265750610526813361036f565b6105a35760405162461bcd60e51b815260206004820152604260248201527f417574686f72697479466163746f72793a20617070726f76652063616c6c657260448201527f206973206e6f74206f776e6572206e6f7220617070726f76656420666f7220616064820152611b1b60f21b608482015260a401610462565b6105ad8383610bc3565b505050565b6105bd600082610b68565b50565b6105ca3382610c31565b6105e65760405162461bcd60e51b815260040161046290611ae4565b6105ad838383610d32565b60006103dd81836107e3565b6000828152602081905260409020600101546106198133610ee7565b6105ad8383610f4b565b6001600160a01b03811633146106935760405162461bcd60e51b815260206004820152602f60248201527f416363657373436f6e74726f6c3a2063616e206f6e6c792072656e6f756e636560448201526e103937b632b9903337b91039b2b63360891b6064820152608401610462565b61069d8282610fcf565b5050565b61069d8282611034565b6105ad8383836040518060200160405280600081525061093e565b6000818152600460205260408120546001600160a01b0316806103dd5760405162461bcd60e51b815260206004820152603360248201527f417574686f72697479466163746f72793a206f776e657220717565727920666f60448201527239103737b732bc34b9ba32b73a103a37b5b2b760691b6064820152608401610462565b6105bd6000826105fd565b60006001600160a01b0382166107c75760405162461bcd60e51b815260206004820152603460248201527f417574686f72697479466163746f72793a2062616c616e636520717565727920604482015273666f7220746865207a65726f206164647265737360601b6064820152608401610462565b506001600160a01b031660009081526005602052604090205490565b6000918252602082815260408084206001600160a01b0393909316845291905290205460ff1690565b6001600160a01b0382163314156108715760405162461bcd60e51b815260206004820152602360248201527f417574686f72697479466163746f72793a20617070726f766520746f2063616c6044820152623632b960e91b6064820152608401610462565b3360008181526007602090815260408083206001600160a01b03871680855290835292819020805460ff191686151590811790915590519081529192917f17307eab39ab6107e8899845ad3d59bd9653f200f220920489ca2b5937696c31910160405180910390a35050565b6108e86000336107e3565b61092b5760405162461bcd60e51b815260206004820152601460248201527310591b5a5b8e881858d8d95cdcc819195b9a595960621b6044820152606401610462565b805161069d906003906020840190611621565b6109483383610c31565b6109645760405162461bcd60e51b815260040161046290611ae4565b6109708484848461104e565b50505050565b6109816000336107e3565b6109c45760405162461bcd60e51b815260206004820152601460248201527310591b5a5b8e881858d8d95cdcc819195b9a595960621b6044820152606401610462565b805161069d906001906020840190611621565b60025460ff1615610a415760405162461bcd60e51b815260206004820152602e60248201527f436f6e747261637420696e7374616e63652068617320616c726561647920626560448201526d195b881a5b9a5d1a585b1a5e995960921b6064820152608401610462565b6002805460ff196001600160a01b0390931661010002929092166001600160a81b0319909216919091176001179055565b6000818152600460205260409020546060906001600160a01b0316610aff5760405162461bcd60e51b815260206004820152603960248201527f417574686f72697479466163746f72794d657461646174613a2055524920717560448201527f65727920666f72206e6f6e6578697374656e7420746f6b656e000000000000006064820152608401610462565b6000610b1660408051602081019091526000815290565b90506000815111610b365760405180602001604052806000815250610b61565b80610b4084611081565b604051602001610b51929190611993565b6040516020818303038152906040525b9392505050565b600082815260208190526040902060010154610b848133610ee7565b6105ad8383610fcf565b60006001600160e01b03198216637965db0b60e01b14806103dd57506301ffc9a760e01b6001600160e01b03198316146103dd565b600081815260066020526040902080546001600160a01b0319166001600160a01b0384169081179091558190610bf8826106c6565b6001600160a01b03167f8c5be1e5ebec7d5bd14f71427d1e84f3dd0314c0f7b2291e5b200ac8c7c3b92560405160405180910390a45050565b6000818152600460205260408120546001600160a01b0316610cb45760405162461bcd60e51b815260206004820152603660248201527f417574686f72697479466163746f72793a206f70657261746f72207175657279604482015275103337b9103737b732bc34b9ba32b73a103a37b5b2b760511b6064820152608401610462565b6000610cbf836106c6565b9050806001600160a01b0316846001600160a01b03161480610cfa5750836001600160a01b0316610cef846103e3565b6001600160a01b0316145b80610d2a57506001600160a01b0380821660009081526007602090815260408083209388168352929052205460ff165b949350505050565b826001600160a01b0316610d45826106c6565b6001600160a01b031614610db75760405162461bcd60e51b815260206004820152603360248201527f417574686f72697479466163746f72793a207472616e73666572206f6620746f60448201527235b2b7103a3430ba1034b9903737ba1037bbb760691b6064820152608401610462565b6001600160a01b038216610e245760405162461bcd60e51b815260206004820152602e60248201527f417574686f72697479466163746f72793a207472616e7366657220746f20746860448201526d65207a65726f206164647265737360901b6064820152608401610462565b610e2f600082610bc3565b6001600160a01b0383166000908152600560205260408120805460019290610e58908490611b8c565b90915550506001600160a01b0382166000908152600560205260408120805460019290610e86908490611b41565b909155505060008181526004602052604080822080546001600160a01b0319166001600160a01b0386811691821790925591518493918716917fddf252ad1be2c89b69c2b068fc378daa952ba7f163c4a11628f55a4df523b3ef91a4505050565b610ef182826107e3565b61069d57610f09816001600160a01b0316601461119b565b610f1483602061119b565b604051602001610f259291906119c2565b60408051601f198184030181529082905262461bcd60e51b825261046291600401611a74565b610f5582826107e3565b61069d576000828152602081815260408083206001600160a01b03851684529091529020805460ff19166001179055610f8b3390565b6001600160a01b0316816001600160a01b0316837f2f8788117e7eff1d82e926ec794901d17c78024a50270940304540a733656f0d60405160405180910390a45050565b610fd982826107e3565b1561069d576000828152602081815260408083206001600160a01b0385168085529252808320805460ff1916905551339285917ff6391f5c32d9c69d2a47ea670b442974b53935d1edc7fd64eb21e047a839171b9190a45050565b61069d82826040518060200160405280600081525061137d565b611059848484610d32565b611065848484846113b0565b6109705760405162461bcd60e51b815260040161046290611a87565b6060816110a55750506040805180820190915260018152600360fc1b602082015290565b8160005b81156110cf57806110b981611c21565b91506110c89050600a83611b59565b91506110a9565b60008167ffffffffffffffff8111156110f857634e487b7160e01b600052604160045260246000fd5b6040519080825280601f01601f191660200182016040528015611122576020820181803683370190505b5090505b8415610d2a57611137600183611b8c565b9150611144600a86611c3c565b61114f906030611b41565b60f81b81838151811061117257634e487b7160e01b600052603260045260246000fd5b60200101906001600160f81b031916908160001a905350611194600a86611b59565b9450611126565b606060006111aa836002611b6d565b6111b5906002611b41565b67ffffffffffffffff8111156111db57634e487b7160e01b600052604160045260246000fd5b6040519080825280601f01601f191660200182016040528015611205576020820181803683370190505b509050600360fc1b8160008151811061122e57634e487b7160e01b600052603260045260246000fd5b60200101906001600160f81b031916908160001a905350600f60fb1b8160018151811061126b57634e487b7160e01b600052603260045260246000fd5b60200101906001600160f81b031916908160001a905350600061128f846002611b6d565b61129a906001611b41565b90505b600181111561132e576f181899199a1a9b1b9c1cb0b131b232b360811b85600f16601081106112dc57634e487b7160e01b600052603260045260246000fd5b1a60f81b82828151811061130057634e487b7160e01b600052603260045260246000fd5b60200101906001600160f81b031916908160001a90535060049490941c9361132781611bcf565b905061129d565b508315610b615760405162461bcd60e51b815260206004820181905260248201527f537472696e67733a20686578206c656e67746820696e73756666696369656e746044820152606401610462565b61138783836114bd565b61139460008484846113b0565b6105ad5760405162461bcd60e51b815260040161046290611a87565b60006001600160a01b0384163b156114b257604051630a85bd0160e11b81526001600160a01b0385169063150b7a02906113f4903390899088908890600401611a37565b602060405180830381600087803b15801561140e57600080fd5b505af192505050801561143e575060408051601f3d908101601f1916820190925261143b91810190611905565b60015b611498573d80801561146c576040519150601f19603f3d011682016040523d82523d6000602084013e611471565b606091505b5080516114905760405162461bcd60e51b815260040161046290611a87565b805181602001fd5b6001600160e01b031916630a85bd0160e11b149050610d2a565b506001949350505050565b6001600160a01b0382166115265760405162461bcd60e51b815260206004820152602a60248201527f417574686f72697479466163746f72793a206d696e7420746f20746865207a65604482015269726f206164647265737360b01b6064820152608401610462565b6000818152600460205260409020546001600160a01b03161561159a5760405162461bcd60e51b815260206004820152602660248201527f417574686f72697479466163746f72793a20746f6b656e20616c7265616479206044820152651b5a5b9d195960d21b6064820152608401610462565b6001600160a01b03821660009081526005602052604081208054600192906115c3908490611b41565b909155505060008181526004602052604080822080546001600160a01b0319166001600160a01b03861690811790915590518392907fddf252ad1be2c89b69c2b068fc378daa952ba7f163c4a11628f55a4df523b3ef908290a45050565b82805461162d90611be6565b90600052602060002090601f01602090048101928261164f5760008555611695565b82601f1061166857805160ff1916838001178555611695565b82800160010185558215611695579182015b8281111561169557825182559160200191906001019061167a565b506116a19291506116a5565b5090565b5b808211156116a157600081556001016116a6565b600067ffffffffffffffff808411156116d5576116d5611c7c565b604051601f8501601f19908116603f011681019082821181831017156116fd576116fd611c7c565b8160405280935085815286868601111561171657600080fd5b858560208301376000602087830101525050509392505050565b80356001600160a01b038116811461174757600080fd5b919050565b60006020828403121561175d578081fd5b610b6182611730565b60008060408385031215611778578081fd5b61178183611730565b915061178f60208401611730565b90509250929050565b6000806000606084860312156117ac578081fd5b6117b584611730565b92506117c360208501611730565b9150604084013590509250925092565b600080600080608085870312156117e8578081fd5b6117f185611730565b93506117ff60208601611730565b925060408501359150606085013567ffffffffffffffff811115611821578182fd5b8501601f81018713611831578182fd5b611840878235602084016116ba565b91505092959194509250565b6000806040838503121561185e578182fd5b61186783611730565b91506020830135801515811461187b578182fd5b809150509250929050565b60008060408385031215611898578182fd5b6118a183611730565b946020939093013593505050565b6000602082840312156118c0578081fd5b5035919050565b600080604083850312156118d9578182fd5b8235915061178f60208401611730565b6000602082840312156118fa578081fd5b8135610b6181611c92565b600060208284031215611916578081fd5b8151610b6181611c92565b600060208284031215611932578081fd5b813567ffffffffffffffff811115611948578182fd5b8201601f81018413611958578182fd5b610d2a848235602084016116ba565b6000815180845261197f816020860160208601611ba3565b601f01601f19169290920160200192915050565b600083516119a5818460208801611ba3565b8351908301906119b9818360208801611ba3565b01949350505050565b7f416363657373436f6e74726f6c3a206163636f756e74200000000000000000008152600083516119fa816017850160208801611ba3565b7001034b99036b4b9b9b4b733903937b6329607d1b6017918401918201528351611a2b816028840160208801611ba3565b01602801949350505050565b6001600160a01b0385811682528416602082015260408101839052608060608201819052600090611a6a90830184611967565b9695505050505050565b602081526000610b616020830184611967565b6020808252603c908201527f417574686f72697479466163746f72793a207472616e7366657220746f206e6f60408201527f6e20455243373231526563656976657220696d706c656d656e74657200000000606082015260800190565b6020808252603b908201527f417574686f72697479466163746f72793a207472616e736665722063616c6c6560408201527f72206973206e6f74206f776e6572206e6f7220617070726f7665640000000000606082015260800190565b60008219821115611b5457611b54611c50565b500190565b600082611b6857611b68611c66565b500490565b6000816000190483118215151615611b8757611b87611c50565b500290565b600082821015611b9e57611b9e611c50565b500390565b60005b83811015611bbe578181015183820152602001611ba6565b838111156109705750506000910152565b600081611bde57611bde611c50565b506000190190565b600181811c90821680611bfa57607f821691505b60208210811415611c1b57634e487b7160e01b600052602260045260246000fd5b50919050565b6000600019821415611c3557611c35611c50565b5060010190565b600082611c4b57611c4b611c66565b500690565b634e487b7160e01b600052601160045260246000fd5b634e487b7160e01b600052601260045260246000fd5b634e487b7160e01b600052604160045260246000fd5b6001600160e01b0319811681146105bd57600080fdfea26469706673582212200c41e697d6a62c7a5df060ca9d1cb64ee60902255d669411804854b52cdacfaf64736f6c63430008040033",
    "sourcePath": "/home/dev3/Documents/Crypto/CloudCoin/contracts/tokens/AuthorityFactory.sol",
    "compiler": {
        "name": "solc",
        "version": "0.8.4+commit.c7e474f2"
    },
    "functionHashes": {
        "DEFAULT_ADMIN_ROLE()": "a217fddf",
        "addAdmin(address)": "70480275",
        "approve(address,uint256)": "095ea7b3",
        "balanceOf(address)": "70a08231",
        "getApproved(uint256)": "081812fc",
        "getRoleAdmin(bytes32)": "248a9ca3",
        "grantRole(bytes32,address)": "2f2ff15d",
        "hasRole(bytes32,address)": "91d14854",
        "initialize(address)": "c4d66de8",
        "isAdmin(address)": "24d7806c",
        "isApprovedForAll(address,address)": "e985e9c5",
        "mint(address,uint256)": "40c10f19",
        "ownerOf(uint256)": "6352211e",
        "removeAdmin(address)": "1785f53c",
        "renounceRole(bytes32,address)": "36568abe",
        "revokeRole(bytes32,address)": "d547741f",
        "safeTransferFrom(address,address,uint256)": "42842e0e",
        "safeTransferFrom(address,address,uint256,bytes)": "b88d4fde",
        "setApprovalForAll(address,bool)": "a22cb465",
        "setName(string)": "c47f0027",
        "setSymbol(string)": "b84c8246",
        "supportsInterface(bytes4)": "01ffc9a7",
        "tokenURI(uint256)": "c87b56dd",
        "transferFrom(address,address,uint256)": "23b872dd"
    },
    "gasEstimates": {
        "creation": {
            "codeDepositCost": "1478000",
            "executionCost": "infinite",
            "totalCost": "infinite"
        },
        "external": {
            "DEFAULT_ADMIN_ROLE()": "284",
            "addAdmin(address)": "infinite",
            "approve(address,uint256)": "infinite",
            "balanceOf(address)": "1334",
            "getApproved(uint256)": "2138",
            "getRoleAdmin(bytes32)": "1281",
            "grantRole(bytes32,address)": "infinite",
            "hasRole(bytes32,address)": "1418",
            "initialize(address)": "22098",
            "isAdmin(address)": "1391",
            "isApprovedForAll(address,address)": "infinite",
            "mint(address,uint256)": "infinite",
            "ownerOf(uint256)": "1389",
            "removeAdmin(address)": "infinite",
            "renounceRole(bytes32,address)": "24362",
            "revokeRole(bytes32,address)": "infinite",
            "safeTransferFrom(address,address,uint256)": "infinite",
            "safeTransferFrom(address,address,uint256,bytes)": "infinite",
            "setApprovalForAll(address,bool)": "23339",
            "setName(string)": "infinite",
            "setSymbol(string)": "infinite",
            "supportsInterface(bytes4)": "infinite",
            "tokenURI(uint256)": "infinite",
            "transferFrom(address,address,uint256)": "infinite"
        },
        "internal": {
            "_approve(address,uint256)": "infinite",
            "_baseURI()": "infinite",
            "_beforeTokenTransfer(address,address,uint256)": "infinite",
            "_burn(uint256)": "infinite",
            "_checkOnERC721Received(address,address,uint256,bytes memory)": "infinite",
            "_exists(uint256)": "infinite",
            "_isApprovedOrOwner(address,uint256)": "infinite",
            "_mint(address,uint256)": "infinite",
            "_safeMint(address,uint256)": "infinite",
            "_safeMint(address,uint256,bytes memory)": "infinite",
            "_safeTransfer(address,address,uint256,bytes memory)": "infinite",
            "_transfer(address,address,uint256)": "infinite"
        }
    }
}