{
  "_format": "hh-sol-artifact-1",
  "contractName": "Greeter",
  "sourceName": "contracts/Greeter.sol",
  "abi": [
    {
      "inputs": [
        {
          "internalType": "string",
          "name": "_greeting",
          "type": "string"
        }
      ],
      "stateMutability": "nonpayable",
      "type": "constructor"
    },
    {
      "inputs": [],
      "name": "greet",
      "outputs": [
        {
          "internalType": "string",
          "name": "",
          "type": "string"
        }
      ],
      "stateMutability": "view",
      "type": "function"
    },
    {
      "inputs": [],
      "name": "greeting",
      "outputs": [
        {
          "internalType": "string",
          "name": "",
          "type": "string"
        }
      ],
      "stateMutability": "view",
      "type": "function"
    },
    {
      "inputs": [
        {
          "internalType": "string",
          "name": "_greeting",
          "type": "string"
        }
      ],
      "name": "setGreeting",
      "outputs": [],
      "stateMutability": "nonpayable",
      "type": "function"
    }
  ],
  "bytecode": "0x60806040523480156200001157600080fd5b506040516200094038038062000940833981016040819052620000349162000199565b620000646040518060600160405280602281526020016200091e60229139826200008160201b620002651760201c565b805162000079906000906020840190620000f3565b505062000333565b620000ce82826040516024016200009a9291906200027b565b60408051601f198184030181529190526020810180516001600160e01b03908116634b5c427760e01b17909152620000d216565b5050565b80516a636f6e736f6c652e6c6f67602083016000808483855afa5050505050565b8280546200010190620002e0565b90600052602060002090601f01602090048101928262000125576000855562000170565b82601f106200014057805160ff191683800117855562000170565b8280016001018555821562000170579182015b828111156200017057825182559160200191906001019062000153565b506200017e92915062000182565b5090565b5b808211156200017e576000815560010162000183565b600060208284031215620001ab578081fd5b81516001600160401b0380821115620001c2578283fd5b818401915084601f830112620001d6578283fd5b815181811115620001eb57620001eb6200031d565b604051601f8201601f19908116603f011681019083821181831017156200021657620002166200031d565b816040528281528760208487010111156200022f578586fd5b62000242836020830160208801620002ad565b979650505050505050565b6000815180845262000267816020860160208601620002ad565b601f01601f19169290920160200192915050565b6040815260006200029060408301856200024d565b8281036020840152620002a481856200024d565b95945050505050565b60005b83811015620002ca578181015183820152602001620002b0565b83811115620002da576000848401525b50505050565b600181811c90821680620002f557607f821691505b602082108114156200031757634e487b7160e01b600052602260045260246000fd5b50919050565b634e487b7160e01b600052604160045260246000fd5b6105db80620003436000396000f3fe608060405234801561001057600080fd5b50600436106100415760003560e01c8063a413686214610046578063cfae32171461005b578063ef690cc014610079575b600080fd5b6100596100543660046103da565b610081565b005b610063610145565b60405161007091906104cf565b60405180910390f35b6100636101d7565b61012e6040518060600160405280602381526020016105ac60239139600080546100aa9061055a565b80601f01602080910402602001604051908101604052809291908181526020018280546100d69061055a565b80156101235780601f106100f857610100808354040283529160200191610123565b820191906000526020600020905b81548152906001019060200180831161010657829003601f168201915b5050505050836102bf565b8051610141906000906020840190610341565b5050565b6060600080546101549061055a565b80601f01602080910402602001604051908101604052809291908181526020018280546101809061055a565b80156101cd5780601f106101a2576101008083540402835291602001916101cd565b820191906000526020600020905b8154815290600101906020018083116101b057829003601f168201915b5050505050905090565b600080546101e49061055a565b80601f01602080910402602001604051908101604052809291908181526020018280546102109061055a565b801561025d5780601f106102325761010080835404028352916020019161025d565b820191906000526020600020905b81548152906001019060200180831161024057829003601f168201915b505050505081565b610141828260405160240161027b9291906104e9565b60408051601f198184030181529190526020810180517bffffffffffffffffffffffffffffffffffffffffffffffffffffffff16634b5c427760e01b179052610320565b61031b8383836040516024016102d793929190610517565b60408051601f198184030181529190526020810180517bffffffffffffffffffffffffffffffffffffffffffffffffffffffff16632ced7cef60e01b179052610320565b505050565b80516a636f6e736f6c652e6c6f67602083016000808483855afa5050505050565b82805461034d9061055a565b90600052602060002090601f01602090048101928261036f57600085556103b5565b82601f1061038857805160ff19168380011785556103b5565b828001600101855582156103b5579182015b828111156103b557825182559160200191906001019061039a565b506103c19291506103c5565b5090565b5b808211156103c157600081556001016103c6565b6000602082840312156103eb578081fd5b813567ffffffffffffffff80821115610402578283fd5b818401915084601f830112610415578283fd5b81358181111561042757610427610595565b604051601f8201601f19908116603f0116810190838211818310171561044f5761044f610595565b81604052828152876020848701011115610467578586fd5b826020860160208301379182016020019490945295945050505050565b60008151808452815b818110156104a95760208185018101518683018201520161048d565b818111156104ba5782602083870101525b50601f01601f19169290920160200192915050565b6020815260006104e26020830184610484565b9392505050565b6040815260006104fc6040830185610484565b828103602084015261050e8185610484565b95945050505050565b60608152600061052a6060830186610484565b828103602084015261053c8186610484565b905082810360408401526105508185610484565b9695505050505050565b600181811c9082168061056e57607f821691505b6020821081141561058f57634e487b7160e01b600052602260045260246000fd5b50919050565b634e487b7160e01b600052604160045260246000fdfe4368616e67696e67206772656574696e672066726f6d202725732720746f2027257327a164736f6c6343000804000a4465706c6f79696e67206120477265657465722077697468206772656574696e673a",
  "linkReferences": {},
  "deployedLinkReferences": {}
}