{
  "_format": "hh-sol-artifact-1",
  "contractName": "AuthorityFactory",
  "sourceName": "contracts/tokens/AuthorityFactory.sol",
  "abi": [
    {
      "inputs": [
        {
          "internalType": "address",
          "name": "cloudOwner",
          "type": "address"
        }
      ],
      "stateMutability": "nonpayable",
      "type": "constructor"
    },
    {
      "anonymous": false,
      "inputs": [
        {
          "indexed": true,
          "internalType": "address",
          "name": "owner",
          "type": "address"
        },
        {
          "indexed": true,
          "internalType": "address",
          "name": "approved",
          "type": "address"
        },
        {
          "indexed": true,
          "internalType": "uint256",
          "name": "tokenId",
          "type": "uint256"
        }
      ],
      "name": "Approval",
      "type": "event"
    },
    {
      "anonymous": false,
      "inputs": [
        {
          "indexed": true,
          "internalType": "address",
          "name": "owner",
          "type": "address"
        },
        {
          "indexed": true,
          "internalType": "address",
          "name": "operator",
          "type": "address"
        },
        {
          "indexed": false,
          "internalType": "bool",
          "name": "approved",
          "type": "bool"
        }
      ],
      "name": "ApprovalForAll",
      "type": "event"
    },
    {
      "anonymous": false,
      "inputs": [
        {
          "indexed": true,
          "internalType": "bytes32",
          "name": "role",
          "type": "bytes32"
        },
        {
          "indexed": true,
          "internalType": "bytes32",
          "name": "previousAdminRole",
          "type": "bytes32"
        },
        {
          "indexed": true,
          "internalType": "bytes32",
          "name": "newAdminRole",
          "type": "bytes32"
        }
      ],
      "name": "RoleAdminChanged",
      "type": "event"
    },
    {
      "anonymous": false,
      "inputs": [
        {
          "indexed": true,
          "internalType": "bytes32",
          "name": "role",
          "type": "bytes32"
        },
        {
          "indexed": true,
          "internalType": "address",
          "name": "account",
          "type": "address"
        },
        {
          "indexed": true,
          "internalType": "address",
          "name": "sender",
          "type": "address"
        }
      ],
      "name": "RoleGranted",
      "type": "event"
    },
    {
      "anonymous": false,
      "inputs": [
        {
          "indexed": true,
          "internalType": "bytes32",
          "name": "role",
          "type": "bytes32"
        },
        {
          "indexed": true,
          "internalType": "address",
          "name": "account",
          "type": "address"
        },
        {
          "indexed": true,
          "internalType": "address",
          "name": "sender",
          "type": "address"
        }
      ],
      "name": "RoleRevoked",
      "type": "event"
    },
    {
      "anonymous": false,
      "inputs": [
        {
          "indexed": true,
          "internalType": "address",
          "name": "from",
          "type": "address"
        },
        {
          "indexed": true,
          "internalType": "address",
          "name": "to",
          "type": "address"
        },
        {
          "indexed": true,
          "internalType": "uint256",
          "name": "tokenId",
          "type": "uint256"
        }
      ],
      "name": "Transfer",
      "type": "event"
    },
    {
      "inputs": [],
      "name": "DEFAULT_ADMIN_ROLE",
      "outputs": [
        {
          "internalType": "bytes32",
          "name": "",
          "type": "bytes32"
        }
      ],
      "stateMutability": "view",
      "type": "function"
    },
    {
      "inputs": [
        {
          "internalType": "address",
          "name": "_account",
          "type": "address"
        }
      ],
      "name": "addAdmin",
      "outputs": [],
      "stateMutability": "nonpayable",
      "type": "function"
    },
    {
      "inputs": [
        {
          "internalType": "address",
          "name": "to",
          "type": "address"
        },
        {
          "internalType": "uint256",
          "name": "tokenId",
          "type": "uint256"
        }
      ],
      "name": "approve",
      "outputs": [],
      "stateMutability": "nonpayable",
      "type": "function"
    },
    {
      "inputs": [
        {
          "internalType": "address",
          "name": "owner",
          "type": "address"
        }
      ],
      "name": "balanceOf",
      "outputs": [
        {
          "internalType": "uint256",
          "name": "",
          "type": "uint256"
        }
      ],
      "stateMutability": "view",
      "type": "function"
    },
    {
      "inputs": [
        {
          "internalType": "uint256",
          "name": "tokenId",
          "type": "uint256"
        }
      ],
      "name": "getApproved",
      "outputs": [
        {
          "internalType": "address",
          "name": "",
          "type": "address"
        }
      ],
      "stateMutability": "view",
      "type": "function"
    },
    {
      "inputs": [
        {
          "internalType": "bytes32",
          "name": "role",
          "type": "bytes32"
        }
      ],
      "name": "getRoleAdmin",
      "outputs": [
        {
          "internalType": "bytes32",
          "name": "",
          "type": "bytes32"
        }
      ],
      "stateMutability": "view",
      "type": "function"
    },
    {
      "inputs": [
        {
          "internalType": "bytes32",
          "name": "role",
          "type": "bytes32"
        },
        {
          "internalType": "address",
          "name": "account",
          "type": "address"
        }
      ],
      "name": "grantRole",
      "outputs": [],
      "stateMutability": "nonpayable",
      "type": "function"
    },
    {
      "inputs": [
        {
          "internalType": "bytes32",
          "name": "role",
          "type": "bytes32"
        },
        {
          "internalType": "address",
          "name": "account",
          "type": "address"
        }
      ],
      "name": "hasRole",
      "outputs": [
        {
          "internalType": "bool",
          "name": "",
          "type": "bool"
        }
      ],
      "stateMutability": "view",
      "type": "function"
    },
    {
      "inputs": [
        {
          "internalType": "string",
          "name": "nameVal",
          "type": "string"
        },
        {
          "internalType": "string",
          "name": "symbolVal",
          "type": "string"
        }
      ],
      "name": "initialize",
      "outputs": [],
      "stateMutability": "nonpayable",
      "type": "function"
    },
    {
      "inputs": [
        {
          "internalType": "address",
          "name": "_account",
          "type": "address"
        }
      ],
      "name": "isAdmin",
      "outputs": [
        {
          "internalType": "bool",
          "name": "",
          "type": "bool"
        }
      ],
      "stateMutability": "view",
      "type": "function"
    },
    {
      "inputs": [
        {
          "internalType": "address",
          "name": "owner",
          "type": "address"
        },
        {
          "internalType": "address",
          "name": "operator",
          "type": "address"
        }
      ],
      "name": "isApprovedForAll",
      "outputs": [
        {
          "internalType": "bool",
          "name": "",
          "type": "bool"
        }
      ],
      "stateMutability": "view",
      "type": "function"
    },
    {
      "inputs": [
        {
          "internalType": "uint256",
          "name": "tokenId",
          "type": "uint256"
        }
      ],
      "name": "ownerOf",
      "outputs": [
        {
          "internalType": "address",
          "name": "",
          "type": "address"
        }
      ],
      "stateMutability": "view",
      "type": "function"
    },
    {
      "inputs": [
        {
          "internalType": "address",
          "name": "_account",
          "type": "address"
        }
      ],
      "name": "removeAdmin",
      "outputs": [],
      "stateMutability": "nonpayable",
      "type": "function"
    },
    {
      "inputs": [
        {
          "internalType": "bytes32",
          "name": "role",
          "type": "bytes32"
        },
        {
          "internalType": "address",
          "name": "account",
          "type": "address"
        }
      ],
      "name": "renounceRole",
      "outputs": [],
      "stateMutability": "nonpayable",
      "type": "function"
    },
    {
      "inputs": [
        {
          "internalType": "bytes32",
          "name": "role",
          "type": "bytes32"
        },
        {
          "internalType": "address",
          "name": "account",
          "type": "address"
        }
      ],
      "name": "revokeRole",
      "outputs": [],
      "stateMutability": "nonpayable",
      "type": "function"
    },
    {
      "inputs": [
        {
          "internalType": "address",
          "name": "from",
          "type": "address"
        },
        {
          "internalType": "address",
          "name": "to",
          "type": "address"
        },
        {
          "internalType": "uint256",
          "name": "tokenId",
          "type": "uint256"
        }
      ],
      "name": "safeTransferFrom",
      "outputs": [],
      "stateMutability": "nonpayable",
      "type": "function"
    },
    {
      "inputs": [
        {
          "internalType": "address",
          "name": "from",
          "type": "address"
        },
        {
          "internalType": "address",
          "name": "to",
          "type": "address"
        },
        {
          "internalType": "uint256",
          "name": "tokenId",
          "type": "uint256"
        },
        {
          "internalType": "bytes",
          "name": "_data",
          "type": "bytes"
        }
      ],
      "name": "safeTransferFrom",
      "outputs": [],
      "stateMutability": "nonpayable",
      "type": "function"
    },
    {
      "inputs": [
        {
          "internalType": "address",
          "name": "operator",
          "type": "address"
        },
        {
          "internalType": "bool",
          "name": "approved",
          "type": "bool"
        }
      ],
      "name": "setApprovalForAll",
      "outputs": [],
      "stateMutability": "nonpayable",
      "type": "function"
    },
    {
      "inputs": [
        {
          "internalType": "string",
          "name": "nameVal",
          "type": "string"
        }
      ],
      "name": "setName",
      "outputs": [],
      "stateMutability": "nonpayable",
      "type": "function"
    },
    {
      "inputs": [
        {
          "internalType": "string",
          "name": "symbolVal",
          "type": "string"
        }
      ],
      "name": "setSymbol",
      "outputs": [],
      "stateMutability": "nonpayable",
      "type": "function"
    },
    {
      "inputs": [
        {
          "internalType": "bytes4",
          "name": "interfaceId",
          "type": "bytes4"
        }
      ],
      "name": "supportsInterface",
      "outputs": [
        {
          "internalType": "bool",
          "name": "",
          "type": "bool"
        }
      ],
      "stateMutability": "view",
      "type": "function"
    },
    {
      "inputs": [
        {
          "internalType": "uint256",
          "name": "tokenId",
          "type": "uint256"
        }
      ],
      "name": "tokenURI",
      "outputs": [
        {
          "internalType": "string",
          "name": "",
          "type": "string"
        }
      ],
      "stateMutability": "view",
      "type": "function"
    },
    {
      "inputs": [
        {
          "internalType": "address",
          "name": "from",
          "type": "address"
        },
        {
          "internalType": "address",
          "name": "to",
          "type": "address"
        },
        {
          "internalType": "uint256",
          "name": "tokenId",
          "type": "uint256"
        }
      ],
      "name": "transferFrom",
      "outputs": [],
      "stateMutability": "nonpayable",
      "type": "function"
    }
  ],
  "bytecode": "0x60806040523480156200001157600080fd5b5060405162001fb438038062001fb4833981016040819052620000349162000258565b6002546001600160a01b03166200004d600082620001a8565b620000797f0b61d0f3c02dc80c233efe89f6c7b81119e3c3ce125cdc1a4f67bf5e3587623682620001a8565b620000a57f65d7a28e3265b37a6474929f336521b332c1681b933f6cb9f3376673440d862a82620001a8565b620000d17f02358c16c6ece4d564dd98c8400ef2ce02ec4ed5a3d53421ef64678a57ac510182620001a8565b620000fd7fb3bb6029312d1001076133d40b75b7eca92ba54e4963b3ce24e1486a3d5a038b82620001a8565b620001297f62150a51582c26f4255242a3c4ca35fb04250e7315069523d650676aed01a56a82620001a8565b620001557f813b9efdf6afe6b57682eb1fb850711edc34da21ae7f7376cb7a391b1be3239f82620001a8565b620001817f32f1f1918816c13175b4fdb4fd866a30959a9a543260d8c3bc4c46306e0fe74b82620001a8565b50600280546001600160a01b0319166001600160a01b039290921691909117905562000288565b620001b48282620001b8565b5050565b6000828152602081815260408083206001600160a01b038516845290915290205460ff16620001b4576000828152602081815260408083206001600160a01b03851684529091529020805460ff19166001179055620002143390565b6001600160a01b0316816001600160a01b0316837f2f8788117e7eff1d82e926ec794901d17c78024a50270940304540a733656f0d60405160405180910390a45050565b6000602082840312156200026a578081fd5b81516001600160a01b038116811462000281578182fd5b9392505050565b611d1c80620002986000396000f3fe608060405234801561001057600080fd5b506004361061018d5760003560e01c80636352211e116100e3578063b84c82461161008c578063c87b56dd11610066578063c87b56dd14610374578063d547741f14610394578063e985e9c5146103a757600080fd5b8063b84c82461461033b578063b88d4fde1461034e578063c47f00271461036157600080fd5b806391d14854116100bd57806391d14854146102e9578063a217fddf14610320578063a22cb4651461032857600080fd5b80636352211e146102b057806370480275146102c357806370a08231146102d657600080fd5b8063248a9ca31161014557806336568abe1161011f57806336568abe1461027757806342842e0e1461028a5780634cd88b761461029d57600080fd5b8063248a9ca31461022057806324d7806c146102515780632f2ff15d1461026457600080fd5b8063095ea7b311610176578063095ea7b3146101e55780631785f53c146101fa57806323b872dd1461020d57600080fd5b806301ffc9a714610192578063081812fc146101ba575b600080fd5b6101a56101a03660046119b1565b6103e3565b60405190151581526020015b60405180910390f35b6101cd6101c8366004611977565b610429565b6040516001600160a01b0390911681526020016101b1565b6101f86101f336600461194e565b6104d4565b005b6101f8610208366004611814565b610611565b6101f861021b366004611860565b61061f565b61024361022e366004611977565b60009081526020819052604090206001015490565b6040519081526020016101b1565b6101a561025f366004611814565b6106a6565b6101f861027236600461198f565b6106e6565b6101f861028536600461198f565b61070c565b6101f8610298366004611860565b610798565b6101f86102ab366004611a1c565b6107b3565b6101cd6102be366004611977565b6107da565b6101f86102d1366004611814565b610865565b6102436102e4366004611814565b610870565b6101a56102f736600461198f565b6000918252602082815260408084206001600160a01b0393909316845291905290205460ff1690565b610243600081565b6101f8610336366004611914565b61090a565b6101f86103493660046119e9565b6109db565b6101f861035c36600461189b565b610a6c565b6101f861036f3660046119e9565b610afa565b610387610382366004611977565b610b8b565b6040516101b19190611b95565b6101f86103a236600461198f565b610c81565b6101a56103b536600461182e565b6001600160a01b03918216600090815260076020908152604080832093909416825291909152205460ff1690565b60006001600160e01b031982166380ac58cd60e01b148061041457506001600160e01b03198216635b5e139f60e01b145b80610423575061042382610ca7565b92915050565b6000818152600460205260408120546001600160a01b03166104b85760405162461bcd60e51b815260206004820152603660248201527f417574686f72697479466163746f72793a20617070726f76656420717565727960448201527f20666f72206e6f6e6578697374656e7420746f6b656e0000000000000000000060648201526084015b60405180910390fd5b506000908152600660205260409020546001600160a01b031690565b60006104df826107da565b9050806001600160a01b0316836001600160a01b031614156105695760405162461bcd60e51b815260206004820152602b60248201527f417574686f72697479466163746f72793a20617070726f76616c20746f20637560448201527f7272656e74206f776e657200000000000000000000000000000000000000000060648201526084016104af565b336001600160a01b0382161480610585575061058581336103b5565b6106025760405162461bcd60e51b815260206004820152604260248201527f417574686f72697479466163746f72793a20617070726f76652063616c6c657260448201527f206973206e6f74206f776e6572206e6f7220617070726f76656420666f7220616064820152611b1b60f21b608482015260a4016104af565b61060c8383610cdc565b505050565b61061c600082610c81565b50565b6106293382610d57565b61069b5760405162461bcd60e51b815260206004820152603b60248201527f417574686f72697479466163746f72793a207472616e736665722063616c6c6560448201527f72206973206e6f74206f776e6572206e6f7220617070726f766564000000000060648201526084016104af565b61060c838383610e5f565b6001600160a01b03811660009081527fad3228b676f7d3cd4284a5443f17f1962b36e491b30a40b2405849e597ba5fb5602052604081205460ff16610423565b600082815260208190526040902060010154610702813361103a565b61060c83836110b8565b6001600160a01b038116331461078a5760405162461bcd60e51b815260206004820152602f60248201527f416363657373436f6e74726f6c3a2063616e206f6e6c792072656e6f756e636560448201527f20726f6c657320666f722073656c66000000000000000000000000000000000060648201526084016104af565b6107948282611156565b5050565b61060c83838360405180602001604052806000815250610a6c565b81516107c69060019060208501906116ca565b50805161060c9060039060208401906116ca565b6000818152600460205260408120546001600160a01b0316806104235760405162461bcd60e51b815260206004820152603360248201527f417574686f72697479466163746f72793a206f776e657220717565727920666f60448201527f72206e6f6e6578697374656e7420746f6b656e0000000000000000000000000060648201526084016104af565b61061c6000826106e6565b60006001600160a01b0382166108ee5760405162461bcd60e51b815260206004820152603460248201527f417574686f72697479466163746f72793a2062616c616e63652071756572792060448201527f666f7220746865207a65726f206164647265737300000000000000000000000060648201526084016104af565b506001600160a01b031660009081526005602052604090205490565b6001600160a01b03821633141561096f5760405162461bcd60e51b815260206004820152602360248201527f417574686f72697479466163746f72793a20617070726f766520746f2063616c6044820152623632b960e91b60648201526084016104af565b3360008181526007602090815260408083206001600160a01b03871680855290835292819020805460ff191686151590811790915590519081529192917f17307eab39ab6107e8899845ad3d59bd9653f200f220920489ca2b5937696c31910160405180910390a35050565b3360009081527fad3228b676f7d3cd4284a5443f17f1962b36e491b30a40b2405849e597ba5fb5602052604090205460ff16610a595760405162461bcd60e51b815260206004820152601460248201527f41646d696e3a206163636573732064656e69656400000000000000000000000060448201526064016104af565b80516107949060039060208401906116ca565b610a763383610d57565b610ae85760405162461bcd60e51b815260206004820152603b60248201527f417574686f72697479466163746f72793a207472616e736665722063616c6c6560448201527f72206973206e6f74206f776e6572206e6f7220617070726f766564000000000060648201526084016104af565b610af4848484846111d5565b50505050565b3360009081527fad3228b676f7d3cd4284a5443f17f1962b36e491b30a40b2405849e597ba5fb5602052604090205460ff16610b785760405162461bcd60e51b815260206004820152601460248201527f41646d696e3a206163636573732064656e69656400000000000000000000000060448201526064016104af565b80516107949060019060208401906116ca565b6000818152600460205260409020546060906001600160a01b0316610c185760405162461bcd60e51b815260206004820152603960248201527f417574686f72697479466163746f72794d657461646174613a2055524920717560448201527f65727920666f72206e6f6e6578697374656e7420746f6b656e0000000000000060648201526084016104af565b6000610c2f60408051602081019091526000815290565b90506000815111610c4f5760405180602001604052806000815250610c7a565b80610c598461125e565b604051602001610c6a929190611aa9565b6040516020818303038152906040525b9392505050565b600082815260208190526040902060010154610c9d813361103a565b61060c8383611156565b60006001600160e01b03198216637965db0b60e01b148061042357506301ffc9a760e01b6001600160e01b0319831614610423565b6000818152600660205260409020805473ffffffffffffffffffffffffffffffffffffffff19166001600160a01b0384169081179091558190610d1e826107da565b6001600160a01b03167f8c5be1e5ebec7d5bd14f71427d1e84f3dd0314c0f7b2291e5b200ac8c7c3b92560405160405180910390a45050565b6000818152600460205260408120546001600160a01b0316610de15760405162461bcd60e51b815260206004820152603660248201527f417574686f72697479466163746f72793a206f70657261746f7220717565727960448201527f20666f72206e6f6e6578697374656e7420746f6b656e0000000000000000000060648201526084016104af565b6000610dec836107da565b9050806001600160a01b0316846001600160a01b03161480610e275750836001600160a01b0316610e1c84610429565b6001600160a01b0316145b80610e5757506001600160a01b0380821660009081526007602090815260408083209388168352929052205460ff165b949350505050565b826001600160a01b0316610e72826107da565b6001600160a01b031614610eee5760405162461bcd60e51b815260206004820152603360248201527f417574686f72697479466163746f72793a207472616e73666572206f6620746f60448201527f6b656e2074686174206973206e6f74206f776e0000000000000000000000000060648201526084016104af565b6001600160a01b038216610f6a5760405162461bcd60e51b815260206004820152602e60248201527f417574686f72697479466163746f72793a207472616e7366657220746f20746860448201527f65207a65726f206164647265737300000000000000000000000000000000000060648201526084016104af565b610f75600082610cdc565b6001600160a01b0383166000908152600560205260408120805460019290610f9e908490611bf3565b90915550506001600160a01b0382166000908152600560205260408120805460019290610fcc908490611ba8565b9091555050600081815260046020526040808220805473ffffffffffffffffffffffffffffffffffffffff19166001600160a01b0386811691821790925591518493918716917fddf252ad1be2c89b69c2b068fc378daa952ba7f163c4a11628f55a4df523b3ef91a4505050565b6000828152602081815260408083206001600160a01b038516845290915290205460ff1661079457611076816001600160a01b03166014611378565b611081836020611378565b604051602001611092929190611ad8565b60408051601f198184030181529082905262461bcd60e51b82526104af91600401611b95565b6000828152602081815260408083206001600160a01b038516845290915290205460ff16610794576000828152602081815260408083206001600160a01b03851684529091529020805460ff191660011790556111123390565b6001600160a01b0316816001600160a01b0316837f2f8788117e7eff1d82e926ec794901d17c78024a50270940304540a733656f0d60405160405180910390a45050565b6000828152602081815260408083206001600160a01b038516845290915290205460ff1615610794576000828152602081815260408083206001600160a01b0385168085529252808320805460ff1916905551339285917ff6391f5c32d9c69d2a47ea670b442974b53935d1edc7fd64eb21e047a839171b9190a45050565b6111e0848484610e5f565b6111ec84848484611567565b610af45760405162461bcd60e51b815260206004820152603c60248201527f417574686f72697479466163746f72793a207472616e7366657220746f206e6f60448201527f6e20455243373231526563656976657220696d706c656d656e7465720000000060648201526084016104af565b6060816112825750506040805180820190915260018152600360fc1b602082015290565b8160005b81156112ac578061129681611c88565b91506112a59050600a83611bc0565b9150611286565b60008167ffffffffffffffff8111156112d557634e487b7160e01b600052604160045260246000fd5b6040519080825280601f01601f1916602001820160405280156112ff576020820181803683370190505b5090505b8415610e5757611314600183611bf3565b9150611321600a86611ca3565b61132c906030611ba8565b60f81b81838151811061134f57634e487b7160e01b600052603260045260246000fd5b60200101906001600160f81b031916908160001a905350611371600a86611bc0565b9450611303565b60606000611387836002611bd4565b611392906002611ba8565b67ffffffffffffffff8111156113b857634e487b7160e01b600052604160045260246000fd5b6040519080825280601f01601f1916602001820160405280156113e2576020820181803683370190505b509050600360fc1b8160008151811061140b57634e487b7160e01b600052603260045260246000fd5b60200101906001600160f81b031916908160001a905350600f60fb1b8160018151811061144857634e487b7160e01b600052603260045260246000fd5b60200101906001600160f81b031916908160001a905350600061146c846002611bd4565b611477906001611ba8565b90505b6001811115611518577f303132333435363738396162636465660000000000000000000000000000000085600f16601081106114c657634e487b7160e01b600052603260045260246000fd5b1a60f81b8282815181106114ea57634e487b7160e01b600052603260045260246000fd5b60200101906001600160f81b031916908160001a90535060049490941c9361151181611c36565b905061147a565b508315610c7a5760405162461bcd60e51b815260206004820181905260248201527f537472696e67733a20686578206c656e67746820696e73756666696369656e7460448201526064016104af565b60006001600160a01b0384163b156116bf57604051630a85bd0160e11b81526001600160a01b0385169063150b7a02906115ab903390899088908890600401611b59565b602060405180830381600087803b1580156115c557600080fd5b505af19250505080156115f5575060408051601f3d908101601f191682019092526115f2918101906119cd565b60015b6116a5573d808015611623576040519150601f19603f3d011682016040523d82523d6000602084013e611628565b606091505b50805161169d5760405162461bcd60e51b815260206004820152603c60248201527f417574686f72697479466163746f72793a207472616e7366657220746f206e6f60448201527f6e20455243373231526563656976657220696d706c656d656e7465720000000060648201526084016104af565b805181602001fd5b6001600160e01b031916630a85bd0160e11b149050610e57565b506001949350505050565b8280546116d690611c4d565b90600052602060002090601f0160209004810192826116f8576000855561173e565b82601f1061171157805160ff191683800117855561173e565b8280016001018555821561173e579182015b8281111561173e578251825591602001919060010190611723565b5061174a92915061174e565b5090565b5b8082111561174a576000815560010161174f565b600067ffffffffffffffff8084111561177e5761177e611ce3565b604051601f8501601f19908116603f011681019082821181831017156117a6576117a6611ce3565b816040528093508581528686860111156117bf57600080fd5b858560208301376000602087830101525050509392505050565b80356001600160a01b03811681146117f057600080fd5b919050565b600082601f830112611805578081fd5b610c7a83833560208501611763565b600060208284031215611825578081fd5b610c7a826117d9565b60008060408385031215611840578081fd5b611849836117d9565b9150611857602084016117d9565b90509250929050565b600080600060608486031215611874578081fd5b61187d846117d9565b925061188b602085016117d9565b9150604084013590509250925092565b600080600080608085870312156118b0578081fd5b6118b9856117d9565b93506118c7602086016117d9565b925060408501359150606085013567ffffffffffffffff8111156118e9578182fd5b8501601f810187136118f9578182fd5b61190887823560208401611763565b91505092959194509250565b60008060408385031215611926578182fd5b61192f836117d9565b915060208301358015158114611943578182fd5b809150509250929050565b60008060408385031215611960578182fd5b611969836117d9565b946020939093013593505050565b600060208284031215611988578081fd5b5035919050565b600080604083850312156119a1578182fd5b82359150611857602084016117d9565b6000602082840312156119c2578081fd5b8135610c7a81611cf9565b6000602082840312156119de578081fd5b8151610c7a81611cf9565b6000602082840312156119fa578081fd5b813567ffffffffffffffff811115611a10578182fd5b610e57848285016117f5565b60008060408385031215611a2e578182fd5b823567ffffffffffffffff80821115611a45578384fd5b611a51868387016117f5565b93506020850135915080821115611a66578283fd5b50611a73858286016117f5565b9150509250929050565b60008151808452611a95816020860160208601611c0a565b601f01601f19169290920160200192915050565b60008351611abb818460208801611c0a565b835190830190611acf818360208801611c0a565b01949350505050565b7f416363657373436f6e74726f6c3a206163636f756e7420000000000000000000815260008351611b10816017850160208801611c0a565b7f206973206d697373696e6720726f6c65200000000000000000000000000000006017918401918201528351611b4d816028840160208801611c0a565b01602801949350505050565b60006001600160a01b03808716835280861660208401525083604083015260806060830152611b8b6080830184611a7d565b9695505050505050565b602081526000610c7a6020830184611a7d565b60008219821115611bbb57611bbb611cb7565b500190565b600082611bcf57611bcf611ccd565b500490565b6000816000190483118215151615611bee57611bee611cb7565b500290565b600082821015611c0557611c05611cb7565b500390565b60005b83811015611c25578181015183820152602001611c0d565b83811115610af45750506000910152565b600081611c4557611c45611cb7565b506000190190565b600181811c90821680611c6157607f821691505b60208210811415611c8257634e487b7160e01b600052602260045260246000fd5b50919050565b6000600019821415611c9c57611c9c611cb7565b5060010190565b600082611cb257611cb2611ccd565b500690565b634e487b7160e01b600052601160045260246000fd5b634e487b7160e01b600052601260045260246000fd5b634e487b7160e01b600052604160045260246000fd5b6001600160e01b03198116811461061c57600080fdfea164736f6c6343000804000a",
  "linkReferences": {},
  "deployedLinkReferences": {}
}